:100000000C9434000C9449000C9449000C94490061
:100010000C9449000C9449000C9449000C9449003C
:100020000C9449000C9449000C9449000C9449002C
:100030000C9449000C9449000C9449000C9449001C
:100040000C9449000C9449000C9449000C9449000C
:100050000C9449000C9449000C9449000C944900FC
:100060000C9449000C94490011241FBECFEFD8E036
:10007000DEBFCDBF11E0A0E0B1E0EEEBF1E002C0E9
:1000800005900D92A231B107D9F70E94CF000C94D0
:10009000DD000C9400008FEF85B988EC90E020E93A
:1000A00031E0F9013197F1F70197D9F794E395B968
:1000B00080E385B92AE12A95F1F795B985B920E25F
:1000C00033E0F9013197F1F795B985B9C901019785
:1000D000F1F784E285B980E285B9C9010197F1F7AA
:1000E0000895382F307F232F246025B935B990E04B
:1000F00024E0880F991F2A95E1F7282F246025B95D
:1001000085B980E49FE1FC013197F1F70197F1F7A0
:1001100008950E944B008CE20E9471008CE00E94C6
:10012000710086E00E94710080E80E9471000895CD
:10013000982F907F292F256025B9916095B98295D8
:10014000807F982F956095B9816085B980E49FE1A3
:10015000FC013197F1F70197F1F70895CF93DF9301
:10016000EC0102C00E94980089918823D9F7DF91A1
:10017000CF91089520E030E060E240E951E085B1A0
:10018000862785B988E893E1FA013197F1F701975D
:10019000D9F72F5F3F4F2B30310589F708950E9423
:1001A000DA000E94BA000E94890080E091E00E947B
:0E01B000AE00FFCF8FEF84B90895F894FFCF13
:1001BE00746F646F7320726570726F6261646F73B7
:0201CE0000002F
:00000001FF
