:100000000C94C4030C94E1030C94E1030C94E103FD
:100010000C94E1030C94E1030C94E1030C94E103D0
:100020000C94E1030C94E1030C94E1030C94E103C0
:100030000C94E1030C94E1030C94E1030C94E103B0
:100040000C94E1030C94E1030C94E1030C94E103A0
:100050000C94E1030C94E1030C94E1030C94E10390
:100060000C94E1030C94E103000000000000000088
:1000700000005F0000000000000007000700000013
:1000800000147F147F14000000242A7F2A1200002D
:100090000023130864620000003649552250000016
:1000A0000000050300000000001C224100000000C9
:1000B0000041221C0000000000082A1C2A08000041
:1000C0000008083E0808000000A0600000000000D2
:1000D0000008080808080000006060000000000038
:1000E0000020100804020000003E5149453E000077
:1000F0000000427F40000000006251494946000074
:100100000022414949360000001814127F100000F7
:100110000027454545390000003C4A494930000068
:100120000001710905030000003649494936000005
:1001300000064949291E0000000036360000000074
:100140000000AC6C00000000000814224100000018
:1001500000141414141400000041221408000000BC
:10016000000201510906000000324979413E0000B9
:10017000007E0909097E0000007F494949360000D8
:10018000003E414141220000007F4141221C00000D
:10019000007F494949410000007F09090901000029
:1001A000003E414151720000007F0808087F0000B6
:1001B00000417F4100000000002040413F0100005D
:1001C000007F081422410000007F404040400000B2
:1001D000007F020C027F0000007F0408107F0000F7
:1001E000003E4141413E0000007F09090906000030
:1001F000003E4151215E0000007F091929460000A0
:1002000000264949493200000001017F0101000038
:10021000003F4040403F0000001F2040201F0000E2
:10022000003F4038403F00000063140814630000A2
:1002300000030478040300000061514945430000B5
:10024000007F41410000000000020408102000006F
:100250000041417F00000000000402010204000090
:100260000080808080800000000102040000000007
:100270000020545454780000007F48444438000063
:10028000003844442800000000384444487F0000FF
:10029000003854545418000000087E090200000081
:1002A0000018A4A4A47C0000007F080404780000C7
:1002B00000007D00000000000080847D0000000040
:1002C000007F10284400000000417F400000000033
:1002D000007C041804780000007C08047C00000006
:1002E000003844443800000000FC242418000000BA
:1002F00000182424FC00000000007C08040000001A
:10030000004854542400000000047F440000000012
:10031000003C40407C000000001C2040201C0000ED
:10032000003C4030403C00000044281028440000BD
:10033000001CA0A07C000000004464544C44000059
:10034000000836410000000000007F0000000000AF
:100350000041360800000000000201010201000017
:100360000002050502000000000000C0E0F0F0F00F
:10037000F0F0F0F0F0F0F0F0F0F0F0E0C00000008D
:10038000000000FFFFFFFF01000000000000000070
:1003900001FFFFFFFF000000000000FFFFFFFF80E4
:1003A000000000000000000080FFFFFFFF000000D1
:1003B00000000003070F0F0F0F0F0F0F0F0F0F0F8E
:1003C0000F0F0F07030000000000000000000000F6
:1003D000000000000000E0F0F0E00000000000007D
:1003E0000000000000000000000000000000FFFF0F
:1003F000FFFF0000000000000000000000000000FF
:10040000000000000000FFFFFFFF000000000000F0
:1004100000000000000000000000000000000307D2
:100420000703000000000000000000E0F0F0F0F022
:10043000F0F0F0F0F0F0F0F0F0F0F0E0000000008C
:1004400000000081C1C0C0C0C0C0C0C0C0C0C0E109
:10045000FFFFFFFF00000000000000FFFFFFFF871D
:10046000030303030303030303038381000000006A
:10047000000000070F0F0F0F0F0F0F0F0F0F0F0FC1
:100480000F0F0F0700000000000000E0F0F0F0F098
:10049000F0F0F0F0F0F0F0F0F0F0F0E0000000002C
:1004A00000000081C1C0C0C0C0C0C0C0C0C0C0E1A9
:1004B000FFFFFF7F000000000000008183030303B3
:1004C0000303030303030387FFFFFFFE0000000095
:1004D000000000070F0F0F0F0F0F0F0F0F0F0F0F61
:1004E0000F0F0F0700000000000000E0F0F0F030F8
:1004F0000000000000000030F0F0F0E0000000001C
:10050000000000FFFFFFFFE0C0C0C0C0C0C0C0E0EF
:10051000FFFFFFFF000000000000000103030303D2
:100520000303030303030307FFFFFFFF00000000B3
:100530000000000000000000000000000000000CAF
:100540000F0F0F0700000000000000E0F0F0F0F0D7
:10055000F0F0F0F0F0F0F0F0F0F0F0E0000000006B
:10056000000000FFFFFFFFE1C0C0C0C0C0C0C0C0AE
:10057000C0C0C181000000000000008183030303AC
:100580000303030303030387FFFFFFFF00000000D3
:10059000000000070F0F0F0F0F0F0F0F0F0F0F0FA0
:1005A0000F0F0F0700000000000000E0F0F0F0F077
:1005B000F0F0F0F0F0F0F0F0F0F0F0E0000000000B
:1005C000000000FFFFFFFFE1C0C0C0C0C0C0C0C04E
:1005D000C0C0C18100000000000000FFFFFFFF87D6
:1005E0000303030303030387FFFFFFFF0000000073
:1005F000000000070F0F0F0F0F0F0F0F0F0F0F0F40
:100600000F0F0F0700000000000000E0F0F0F0F016
:10061000F0F0F0F0F0F0F0F0F0F0F0E000000000AA
:1006200000000001010000000000000000000001C7
:10063000FFFFFFFF000000000000000000000000BE
:100640000000000000000000FFFFFFFF00000000AE
:100650000000000000000000000000000000000C8E
:100660000F0F0F0700000000000000E0F0F0F0F0B6
:10067000F0F0F0F0F0F0F0F0F0F0F0E0000000004A
:100680000000007FFFFFFFE1C0C0C0C0C0C0C0E1EC
:10069000FFFFFF3F00000000000000FEFFFFFF879C
:1006A0000303030303030387FFFFFFFE00000000B3
:1006B000000000070F0F0F0F0F0F0F0F0F0F0F0F7F
:1006C0000F0F0F0700000000000000E0F0F0F0F056
:1006D000F0F0F0F0F0F0F0F0F0F0F0E000000000EA
:1006E000000000FFFFFFFFE1C0C0C0C0C0C0C0E10C
:1006F000FFFFFFFF000000000000000103030303F1
:100700000303030303030307FFFFFFFF00000000D1
:100710000000000000000000000000000000000CCD
:100720000F0F0F0700000000000000000000000095
:1007300000000000000000000000000000000000B9
:100740000000000000000000003C7E7E7E7E3C0039
:100750000000000000000000000000000000000099
:1007600000F0F8F8F8F8F0000000000000000000C9
:100770000000000000000000000001010101000075
:10078000000000000000000011241FBECFEFD8E0E1
:10079000DEBFCDBF11E0A0E0B1E0E0ECFBE002C0C5
:1007A00005900D92A232B107D9F721E0A2E2B1E0A3
:1007B00001C01D92A332B207E1F70E9430040C94ED
:1007C000DE050C9400001092B90084E18093B8001B
:1007D00084E08093BC00089584E98093BC008FE995
:1007E0009FE00197F1F700C00000089594EA90930C
:1007F000BC009091BC009923E4F79091B900987FD8
:10080000983091F48093BB0084E88093BC00809181
:10081000BC008823E4F78091B900887F883131F0EB
:10082000803231F482E0089580E0089581E00895F7
:1008300083E008958093BB0084E88093BC0080919E
:10084000BC008823E4F78091B900887F883221F0CA
:10085000803321F481E0089580E0089582E00895D6
:1008600080912201813061F028F08230A9F083303C
:10087000C9F0F6CF0E94E30381E080932201F0CF1C
:100880008FE39CE90197F1F700C000000E94890501
:1008900082E080932201E4CF0E945E0583E0809392
:1008A0002201DECF40E050E064E070E082E30E948D
:1008B000DB0460E085E00E94AF0481E091E00E94EB
:1008C000220584E080932201CBCFCF93C82F809163
:1008D00000010E94F60380E00E941A048C2F0E94FF
:1008E0001A040E94EC03CF9108958FEA0E946504D8
:1008F00008958EEA0E9465040895CF93C82F8091D1
:1009000000010E94F60380E40E941A048C2F0E94CA
:100910001A040E94EC03CF9108951F93CF93DF93A5
:10092000EC0116C0E881F0E0B097EE0FFF1FEE0F6C
:10093000FF1FEE0FFF1FE859FF4FE10FF11D8491DC
:100940000E947D041F5F01C010E0183058F321960B
:1009500088818111F9CFDF91CF911F910895CF93B5
:10096000C62F80550E9465048C2F880F880F880F32
:1009700088700E9465048C2F90E0969587958F7003
:10098000805F0E946504CF910895CF93DF93D0E0FC
:100990000DC060E08D2F0E94AF04C0E004C080E075
:1009A0000E947D04CF5FCC23D4F7DF5FD83088F37B
:1009B000DF91CF910895CF92DF92EF92FF920F9344
:1009C0001F93CF93DF93D82E7B01C42E642F8E2DDF
:1009D0000E94AF04C0E0D0E000E010E027C080E259
:1009E000D81204C080E00E947D0410C08D2D90E0DC
:1009F000C09720E6289FF001299FF00D1124E859A7
:100A0000FC4FEC0FFD1F84910E947D0407311105FE
:100A100051F48FEFE81AF80A6C2D8E2D0E94AF0466
:100A200000E010E002C00F5F1F4F2196C036D105D5
:100A3000B4F2DF91CF911F910F91FF90EF90DF9073
:100A4000CF9008950F931F93CF93DF938C01FC01F8
:100A500001900020E9F73197E81BF90BE330F1052D
:100A600041F0E230F10541F0319749F0C0E0D0E0CB
:100A700015C0C0E0D0E012C0C3E0D0E00FC0C6E0B7
:100A8000D0E00CC0AE0164E070E00E94DB0423966D
:100A90006C2F84E00E94AF040F5F1F4FF80180812C
:100AA0008111F0CFDF91CF911F910F9108950E9496
:100AB00079040E94C5040E94750408950E94570598
:100AC00060E080E00E94AF0487E091E00E948D0426
:100AD00060E081E00E94AF048BE091E00E948D0411
:100AE00060E082E00E94AF0484E191E00E948D0406
:100AF0006AE082E00E94AF0489E191E00E948D04E7
:100B00006AE083E00E94AF048DE191E00E948D04D1
:100B1000089587B1806387B988B1806388B92FEF62
:100B200081EE94E0215080409040E1F700C0000049
:100B30008EEA0E94650485ED0E94650480E80E94AB
:100B4000650488EA0E9465048FE30E94650483EDD2
:100B50000E94650480E00E94650480E40E946504B0
:100B60008DE80E94650484E10E94650481EA0E9488
:100B7000650488EC0E9465048AED0E94650482E1A8
:100B80000E94650481E80E9465048FEC0E94650460
:100B900089ED0E94650481EF0E9465048BED0E943F
:100BA000650480E40E94650484EA0E94650486EA84
:100BB0000E9465048FEA0E9465040895F894FFCFAF
:100BC0007832333A3030004A4C4200416361646508
:100BD0006D696100464549430058585800544553D3
:020BE0005400BF
:00000001FF
