S01500006C696E655F666F6C6C6F7765722E737265639E
S11300000C9434000C943E000C943E000C943E007E
S11300100C943E000C943E000C943E000C943E0064
S11300200C943E000C943E000C943E000C943E0054
S11300300C943E000C943E000C943E000C943E0044
S11300400C943E000C943E000C943E000C943E0034
S11300500C943E000C943E000C943E000C943E0024
S11300600C943E000C943E0011241FBECFEFD8E048
S1130070DEBFCDBF0E942F020C94F6040C94000046
S113008080E480937C0087E880937A0008958770E9
S1130090ECE7F0E09081907E90839081892B8083BF
S11300A0808180628083EAE7F0E0808180648083DD
S11300B080917A0084FFFCCFEAE7F0E080818061E0
S11300C08083209178008091790090E0880F991FB7
S11300D0880F991F2295269526952370822B0895C3
S11300E04F925F926F927F929F92AF92BF92CF9204
S11300F0DF92EF92FF920F931F93CF93DF9380E0F1
S11301000E9447008D32914030F081E00E94F60158
S11301109924939404C081E00E941402912C81E0FC
S11301200E9447008D32914028F082E00E94F6013F
S1130130C1E004C082E00E941402C0E082E00E9498
S113014047008D32914028F083E00E94F60101E0DF
S113015004C083E00E94140200E083E00E94470090
S11301608D32914030F084E00E94F601AA24A394D9
S113017004C084E00E941402A12C84E00E94470081
S11301808C32914030F085E00E94F601EE24E39435
S113019004C085E00E941402E12C85E00E9447001F
S11301A08C32914030F086E00E94F601CC24C39456
S11301B004C086E00E941402C12C91100BC0C1112E
S11301C009C0011107C0A11005C0E11003C0CC2073
S11301D009F483C0692D70E080E090E00E94FB0385
S11301E02B013C01D0E0BE01660F771F072E000CE7
S11301F0880B990B0E94FD03A30192010E94EE0259
S11302002B013C0110E0B801660F771F600F711FCE
S1130210072E000C880B990B0E94FD03A301920189
S11302200E94EE022B013C01B12CB501660F771F31
S1130230660F771F072E000C880B990B0E94FD0395
S1130240A30192010E94EE022B013C01F12CB701A3
S1130250660F771F660F771F6E0D7F1D072E000C2C
S1130260880B990B0E94FD03A30192010E94EE02E8
S11302702B013C01D12CB601660F771F6C0D7D1D3F
S1130280660F771F072E000C880B990B0E94FD0345
S11302909B01AC01C301B2010E94EE022B013C019F
S11302A0BE01690D711D600F711F6A0D7B1D6E0DFE
S11302B07F1DE601C60FD71FBE01DD0F880B990B0A
S11302C00E94FD039B01AC01C301B2010E945A03C9
S11302D0562F472F382F292F04C050E040E03FE726
S11302E023E4652F742F832F922FDF91CF911F91D9
S11302F00F91FF90EF90DF90CF90BF90AF909F90C1
S11303007F906F905F904F9008958AB1806F8AB903
S113031084B1896084B98BB1806F8BB985B18960F0
S113032085B9089520E030E05CC08BB18F7E8BB935
S11303304FEF81EE94E0415080409040E1F700C0DF
S113034000008BB180618BB98BB18F7D8BB94FEF7E
S113035081EE94E0415080409040E1F700C00000FD
S11303608BB180628BB98BB18F7B8BB94FEF81EEF0
S113037094E0415080409040E1F700C000008BB110
S113038080648BB98BB18F778BB94FEF81EE94E09A
S1130390415080409040E1F700C000008BB180687C
S11303A08BB985B18E7F85B94FEF81EE94E04150D2
S11303B080409040E1F700C0000085B1816085B9BC
S11303C085B1877F85B94FEF81EE94E0415080403D
S11303D09040E1F700C0000085B1886085B92F5FC7
S11303E03F4F233031050CF4A0CF0895853080F4BD
S11303F04BB190E0039621E030E0B90102C0660FF2
S1130400771F8A95E2F7CB01809584238BB90895F1
S1130410853021F485B18E7F85B90895863019F42D
S113042085B1877F85B90895853070F49BB1482FD5
S113043050E04D5F5F4F21E030E002C0220F331FD8
S11304404A95E2F7292B2BB9853019F495B19160BF
S113045095B9863019F485B1886085B908950E94EC
S113046085010E9492010E9440000E946D026FEF7C
S113047082E00E947D026FEF82E00E94B5022FEFBE
S113048083ED90E3215080409040E1F700C00000EC
S11304906FEF81E00E947D026FEF81E00E94B50260
S11304A02FEF83ED90E3215080409040E1F700C0AE
S11304B0000060E080E00E947D0260E080E00E9435
S11304C0B5022FEF83ED90E3215080409040E1F797
S11304D000C000000E947000FDCF81EA809380007C
S11304E084E08093810084B1826084B984B18460A3
S11304F084B98AB18F608AB90895CF93811107C0F6
S11305008BB18E7F8BB98BB18D7F8BB911C081304C
S113051039F48BB18D7F8BB98BB181608BB908C0F5
S1130520823031F48BB18E7F8BB98BB182608BB901
S1130530CFB7F89470E080E090E00E94FB0320E0E5
S113054030E04FE753E40E945A0320E030E040EFEC
S113055052E40E9489040E94CC0370E070938900E5
S113056060938800CFBFCF910895CF93811107C0C6
S11305708BB18B7F8BB98BB1877F8BB911C08230E4
S113058039F48BB18B7F8BB98BB188608BB908C080
S1130590813031F48BB1877F8BB98BB184608BB997
S11305A0CFB7F89470E080E090E00E94FB0320E075
S11305B030E04FE753E40E945A0320E030E040EF7C
S11305C052E40E9489040E94CC0370E070938B0073
S11305D060938A00CFBFCF9108955058BB27AA27B4
S11305E00E9405030C944F040E94410438F00E94B9
S11305F0480420F039F49F3F19F426F40C943E0487
S11306000EF4E095E7FB0C943804E92F0E94600493
S113061058F3BA17620773078407950720F079F433
S1130620A6F50C9482040EF4E0950B2EBA2FA02D9F
S11306300B01B90190010C01CA01A0011124FF278B
S1130640591B99F0593F50F4503E68F11A16F04086
S1130650A22F232F342F4427585FF3CF4695379585
S11306602795A795F0405395C9F77EF41F16BA0B4A
S1130670620B730B840BBAF09150A1F0FF0FBB1FF8
S1130680661F771F881FC2F70EC0BA0F621F731F41
S1130690841F48F4879577956795B795F7959E3F9E
S11306A008F0B0CF9395880F08F09927EE0F97952F
S11306B0879508950E946E030C944F040E94480489
S11306C058F00E94410440F029F45F3F29F00C9453
S11306D0380451110C9483040C943E040E94600469
S11306E068F39923B1F3552391F3951B550BBB275D
S11306F0AA2762177307840738F09F5F5F4F220FA2
S1130700331F441FAA1FA9F335D00E2E3AF0E0E898
S113071032D091505040E695001CCAF72BD0FE2FE2
S113072029D0660F771F881FBB1F26173707480776
S1130730AB07B0E809F0BB0B802DBF01FF2793582E
S11307405F4F3AF09E3F510578F00C9438040C94B6
S113075083045F3FE4F3983ED4F3869577956795D9
S1130760B795F7959F5FC9F7880F911D9695879563
S113077097F90895E1E0660F771F881FBB1F621782
S113078073078407BA0720F0621B730B840BBA0B40
S1130790EE1F88F7E09508950E94680488F09F573B
S11307A098F0B92F9927B751B0F0E1F0660F771F91
S11307B0881F991F1AF0BA95C9F714C0B13091F087
S11307C00E948204B1E008950C948204672F782F6C
S11307D08827B85F39F0B93FCCF38695779567954C
S11307E0B395D9F73EF490958095709561957F4FB8
S11307F08F4F9F4F0895E89409C097FB3EF490955E
S11308008095709561957F4F8F4F9F4F9923A9F0E5
S1130810F92F96E9BB279395F69587957795679574
S1130820B795F111F8CFFAF4BB0F11F460FF1BC0B8
S11308306F5F7F4F8F4F9F4F16C0882311F096E94B
S113084011C0772321F09EE8872F762F05C06623F9
S113085071F096E8862F70E060E02AF09A95660FB2
S1130860771F881FDAF7880F9695879597F908956B
S113087097F99F6780E870E060E008959FEF80EC4F
S1130880089500240A9416161706180609060895F2
S113089000240A9412161306140605060895092E58
S11308A00394000C11F4882352F0BB0F40F4BF2BC7
S11308B011F460FF04C06F5F7F4F8F4F9F4F089507
S11308C057FD9058440F551F59F05F3F71F04795FD
S11308D0880F97FB991F61F09F3F79F087950895E2
S11308E0121613061406551FF2CF4695F1DF08C001
S11308F0161617061806991FF1CF8695710561051E
S113090008940895E894BB2766277727CB0197F9C5
S113091008950E949C040C944F040E94410438F0F2
S11309200E94480420F0952311F00C9438040C9490
S11309303E0411240C9483040E94600470F3959F78
S1130940C1F3950F50E0551F629FF001729FBB27C2
S1130950F00DB11D639FAA27F00DB11DAA1F649F5E
S11309606627B00DA11D661F829F2227B00DA11D11
S1130970621F739FB00DA11D621F839FA00D611D97
S1130980221F749F3327A00D611D231F849F600DB8
S1130990211D822F762F6A2F11249F5750409AF0E1
S11309A0F1F088234AF0EE0FFF1FBB1F661F771F6D
S11309B0881F91505040A9F79E3F510580F00C9438
S11309C038040C9483045F3FE4F3983ED4F3869593
S11309D077956795B795F795E7959F5FC1F7FE2BD8
S11309E0880F911D9695879597F90895F894FFCFF0
S9030000FC
