S01500006C696E655F666F6C6C6F7765722E737265639E
S11300000C9434000C943E000C943E000C943E007E
S11300100C943E000C943E000C943E000C943E0064
S11300200C943E000C943E000C943E000C943E0054
S11300300C943E000C943E000C943E000C943E0044
S11300400C943E000C943E000C943E000C943E0034
S11300500C943E000C943E000C943E000C943E0024
S11300600C943E000C943E0011241FBECFEFD8E048
S1130070DEBFCDBF0E9440000C9498020C94000097
S11300800E947C006FEF82E00E948C006FEF82E0A0
S11300900E94C4002FEF35E38EE691E021503040FA
S11300A080409040D9F700C000006FEF81E00E94CB
S11300B08C006FEF81E00E94C4002FEF35E38EE6E1
S11300C091E02150304080409040D9F700C00000BA
S11300D060E080E00E948C0060E080E00E94C40048
S11300E02FEF35E38EE691E0215030408040904080
S11300F0D9F700C00000FFCF81EA8093800084E03C
S11301008093810084B1826084B984B1846084B9AD
S11301108AB18F608AB90895CF93811107C08BB1DA
S11301208E7F8BB98BB18D7F8BB911C0813039F43F
S11301308BB18D7F8BB98BB181608BB908C0823054
S113014031F48BB18E7F8BB98BB182608BB9CFB711
S1130150F89470E080E090E00E949D0120E030E09F
S11301604FE753E40E94FC0020E030E040EF52E40B
S11301700E942B020E946E0170E0709389006093CC
S11301808800CFBFCF910895CF93811107C08BB161
S11301908B7F8BB98BB1877F8BB911C0823039F4D7
S11301A08BB18B7F8BB98BB188608BB908C08130E0
S11301B031F48BB1877F8BB98BB184608BB9CFB7A6
S11301C0F89470E080E090E00E949D0120E030E02F
S11301D04FE753E40E94FC0020E030E040EF52E49B
S11301E00E942B020E946E0170E070938B0060935A
S11301F08A00CFBFCF9108950E9410010C94F101A1
S11302000E94EA0158F00E94E30140F029F45F3FA4
S113021029F00C94DA0151110C9425020C94E0019C
S11302200E94020268F39923B1F3552391F3951BBD
S1130230550BBB27AA2762177307840738F09F5F03
S11302405F4F220F331F441FAA1FA9F335D00E2E70
S11302503AF0E0E832D091505040E695001CCAF7DD
S11302602BD0FE2F29D0660F771F881FBB1F2617A0
S113027037074807AB07B0E809F0BB0B802DBF0177
S1130280FF2793585F4F3AF09E3F510578F00C9446
S1130290DA010C9425025F3FE4F3983ED4F386958B
S11302A077956795B795F7959F5FC9F7880F911D67
S11302B09695879597F90895E1E0660F771F881F53
S11302C0BB1F621773078407BA0720F0621B730B06
S11302D0840BBA0BEE1F88F7E09508950E940A027A
S11302E088F09F5798F0B92F9927B751B0F0E1F0F3
S11302F0660F771F881F991F1AF0BA95C9F714C0A3
S1130300B13091F00E942402B1E008950C942402CB
S1130310672F782F8827B85F39F0B93FCCF38695DB
S113032077956795B395D9F73EF490958095709538
S113033061957F4F8F4F9F4F0895E89409C097FBB5
S11303403EF490958095709561957F4F8F4F9F4FA8
S11303509923A9F0F92F96E9BB279395F6958795EC
S113036077956795B795F111F8CFFAF4BB0F11F4AF
S113037060FF1BC06F5F7F4F8F4F9F4F16C0882356
S113038011F096E911C0772321F09EE8872F762F8C
S113039005C0662371F096E8862F70E060E02AF0CD
S11303A09A95660F771F881FDAF7880F96958795B9
S11303B097F9089597F99F6780E870E060E00895E1
S11303C09FEF80EC089500240A9416161706180669
S11303D00906089500240A94121613061406050645
S11303E00895092E0394000C11F4882352F0BB0FD6
S11303F040F4BF2B11F460FF04C06F5F7F4F8F4F39
S11304009F4F089557FD9058440F551F59F05F3F73
S113041071F04795880F97FB991F61F09F3F79F022
S113042087950895121613061406551FF2CF4695A4
S1130430F1DF08C0161617061806991FF1CF869526
S11304407105610508940895E894BB27662777270A
S1130450CB0197F908950E943E020C94F1010E9489
S1130460E30138F00E94EA0120F0952311F00C9486
S1130470DA010C94E00111240C9425020E9402027A
S113048070F3959FC1F3950F50E0551F629FF001E3
S1130490729FBB27F00DB11D639FAA27F00DB11DFC
S11304A0AA1F649F6627B00DA11D661F829F222785
S11304B0B00DA11D621F739FB00DA11D621F839F0C
S11304C0A00D611D221F749F3327A00D611D231FE2
S11304D0849F600D211D822F762F6A2F11249F5730
S11304E050409AF0F1F088234AF0EE0FFF1FBB1F33
S11304F0661F771F881F91505040A9F79E3F5105F2
S113050080F00C94DA010C9425025F3FE4F3983EEA
S1130510D4F3869577956795B795F795E7959F5F9B
S1130520C1F7FE2B880F911D9695879597F908952D
S1070530F894FFCF69
S9030000FC
