:100000000C9434000C9449000C9449000C94490061
:100010000C9449000C9449000C9449000C9449003C
:100020000C9449000C9449000C9449000C9449002C
:100030000C9449000C9449000C9449000C9449001C
:100040000C9449000C9449000C9449000C9449000C
:100050000C9449000C9449000C9449000C944900FC
:100060000C9449000C94490011241FBECFEFD8E036
:10007000DEBFCDBF11E0A0E0B1E0E6ECF2E002C0EF
:1000800005900D92A231B107D9F70E944E010C9450
:1000900061010C9400001092B90084E18093B800D3
:1000A00084E08093BC00089584EA8093BC00809132
:1000B000BC008823E4F7089584E98093BC008FE9AD
:1000C0009FE00197F1F700C0000008958093BB0006
:1000D00084EC8093BC008091BC008823E4F70895F1
:1000E0000E94540080E70E9466008FEF0E94660025
:1000F0002FEF89EF90E0215080409040E1F700C061
:10010000000084E30E94660080E30E9466008FE3A3
:100110009CE90197F1F700C0000084E30E946600AB
:1001200080E30E9466008FE99FE00197F1F700C02D
:10013000000084E30E94660080E30E9466008FE96D
:100140009FE00197F1F700C0000084E20E94660082
:1001500080E20E9466008FE99FE00197F1F700C0FE
:1001600000000E945C000895CF93DF93C82F0E9487
:10017000540080E70E946600DC2FD07F8D2F8C60BA
:100180000E9466008D2F88600E94660080E1C89FF3
:10019000E00111248C2F8C600E9466008C2F0E943D
:1001A00066000E945C008FE39FE10197F1F700C0B9
:1001B00000008FE39FE10197F1F700C00000DF919D
:1001C000CF9108950E944B000E9470008CE20E9423
:1001D000B4008CE00E94B40086E00E94B40080E885
:1001E0000E94B4000895CF93DF93C82F0E9454005B
:1001F00080E70E946600DC2FD07F8D2F8D600E94EB
:1002000066008D2F89600E94660080E1C89FE00132
:1002100011248C2F8D600E9466008C2F89600E94B3
:1002200066000E945C008FE39FE10197F1F700C038
:1002300000008FE39FE10197F1F700C00000DF911C
:10024000CF9108950F931F93CF93DF938C01C0E05C
:10025000D0E003C00E94F3002196F801EC0FFD1FCF
:1002600080818111F7CFDF91CF911F910F91089578
:1002700020E030E00FC095B180E2892785B94FEFCB
:1002800089E698E1415080409040E1F700C00000CD
:100290002F5F3F4F2B30310574F308950E945B01AF
:1002A0000E9438010E944B000E94E20080E091E031
:1002B0000E942201FFCF8FEF84B98AB18C608AB986
:0602C0000895F894FFCF41
:1002C600746F646F7320726570726F6261646F73AE
:0202D600000026
:04000003000000A851
:00000001FF
