:100000000C9434000C9449000C9449000C94490061
:100010000C9449000C9449000C9449000C9449003C
:100020000C9449000C9449000C9449000C9449002C
:100030000C9449000C9449000C9449000C9449001C
:100040000C9449000C9449000C9449000C9449000C
:100050000C9449000C9449000C9449000C944900FC
:100060000C9449000C94490011241FBECFEFD8E036
:10007000DEBFCDBF11E0A0E0B1E0EEEFF1E002C0E5
:1000800005900D92A231B107D9F70E94EC000C94B3
:10009000FD000C9400008FEF85B92FEF89EF90E001
:1000A000215080409040E1F700C0000094E395B9F2
:1000B00080E385B9EAE1EA95F1F700C095B985B921
:1000C000EFE1F3E03197F1F700C0000095B985B991
:1000D0008FE193E00197F1F700C0000084E285B959
:1000E00080E285B9EFE1F3E03197F1F700C000005D
:1000F0000895982F907F292F246025B995B920E184
:10010000829FC0011124982F946095B985B98FE31F
:100110009FE10197F1F700C000008FE39FE1019795
:10012000F1F700C0000008950E944B008CE20E948D
:1001300079008CE00E94790086E00E94790080E8D6
:100140000E9479000895982F907F292F256025B966
:10015000916095B920E1829FC0011124982F95608C
:1001600095B9816085B98FE39FE10197F1F700C0F0
:1001700000008FE39FE10197F1F700C000000895B0
:100180000F931F93CF93DF938C01C0E0D0E003C0A7
:100190000E94A3002196F801EC0FFD1F80818111C0
:1001A000F7CFDF91CF911F910F91089520E030E0BC
:1001B0000FC095B180E2892785B94FEF89E698E1B4
:1001C000415080409040E1F700C000002F5F3F4F5A
:1001D0002B30310574F308950E94F7000E94D60079
:1001E0000E94940080E091E00E94C000FFCF8FEF5A
:0E01F00084B98AB18C608AB90895F894FFCF63
:1001FE00746F646F7320726570726F6261646F7377
:02020E000000EE
:00000001FF
