S012000073646B5F6174333238702E737265638F
S11300000C94B1000C948E010C94C3010C94CE009A
S11300100C94CE000C94CE000C94CE000C94CE0024
S11300200C94CE000C94CE000C94CE000C945C0383
S11300300C94CE000C94CE000C94CE000C94CE0004
S11300400C943F030C94CE000C9494030C94CE00B7
S11300500C94CE000C94D0000C94CE000C9452015D
S11300600C94CE000C94CE0000407A10F35A00A0F9
S1130070724E18090010A5D4E80000E8764817006D
S113008000E40B54020000CA9A3B000000E1F505AD
S1130090000080969800000040420F000000A086F7
S11300A001000000102700000000E8030000000029
S11300B06400000000000A000000000001000000CD
S11300C000002C76D888DC674F0823DFC1DFAE59E7
S11300D0E1B1B796E5E3E453C63AE651997696E87A
S11300E0E6C28426EB898C9B62ED407C6FFCEFBCFE
S11300F09C9F40F2BAA56FA5F490055A2AF75C9329
S11301006B6CF9676DC11BFCE0E40D47FEF520E65E
S1130110B500D0ED902E0300943577050080841E41
S1130120080000204E0A000000C80C333333330F9C
S1130130986E12831141EF8D2114893BE65516CF39
S1130140FEE6DB18D1844B381BF77C1D901DA4BB45
S1130150E424203284725E228100C9F124ECA1E5FA
S11301603D2711241FBECFEFD8E0DEBFCDBF11E085
S1130170A0E0B1E0E2E8FDE002C005900D92AA32F1
S1130180B107D9F721E0AAE2B1E001C01D92AC3277
S1130190B207E1F70E9418030C94BF060C94000008
S11301A01F920F920FB60F9211240F931F932F9348
S11301B03F934F935F936F937F938F939F93AF93EB
S11301C0BF93EF93FF93CF93DF93CDB7DEB72A9717
S11301D0DEBFCDBF809178002091790030E0220FFE
S11301E0331F220F331F8295869586958370282BA3
S11301F046E9429FC001439F900D112463E371E0DF
S11302000E94220480E090E00E94E5038E010F5FCB
S11302101F4F21E044E00E94360462E085E00E9422
S1130220D802C8010E94EC028FED0E94A90282E06C
S113023091E00E94EC02EAE7F0E080818064808330
S11302402A960FB6F894DEBF0FBECDBFDF91CF91D3
S1130250FF91EF91BF91AF919F918F917F916F919A
S11302605F914F913F912F911F910F910F900FBE6E
S11302700F901F901895EAE7F0E0808180688083F2
S1130280808187608083ACE7B0E08C9180628C933E
S11302908C9180648C938081886080838081806469
S11302A0808308951F920F920FB60F9211242F93FB
S11302B03F934F935F936F937F938F939F93AF93EA
S11302C0BF93EF93FF9362E081E00E94D80284E041
S11302D091E00E94EC022FEF83EC99E021508040E2
S11302E09040E1F700C000000E94E202FF91EF910C
S11302F0BF91AF919F918F917F916F915F914F913A
S11303003F912F910F900FBE0F901F90189580B7BB
S1130310836080BF80B7886080BF08951F920F926A
S11303200FB60F9211242F933F934F935F936F93C4
S11303307F938F939F93AF93BF93EF93FF9362E069
S113034081E00E94D8028FE091E00E94EC022FEF3E
S113035083EC99E0215080409040E1F700C0000018
S11303600E94E202FF91EF91BF91AF919F918F9113
S11303707F916F915F914F913F912F910F900FBE9D
S11303800F901F9018951F920F920FB60F92112481
S11303902F933F934F935F936F937F938F939F9389
S11303A0AF93BF93EF93FF9362E081E00E94D80282
S11303B084E191E00E94EC022FEF83EC99E021505C
S11303C080409040E1F700C000000E94E202FF91EB
S11303D0EF91BF91AF919F918F917F916F915F91B9
S11303E04F913F912F910F900FBE0F901F90189532
S11303F0E9E6F0E080818A6080838DB383608DBB01
S113040008951092B90084E18093B80084E0809349
S1130410BC00089584EA8093BC008091BC008823CA
S1130420E4F7089584E98093BC008FE99FE0019785
S1130430F1F700C0000008958093BB0084EC809322
S1130440BC008091BC008823E4F708950E940A024E
S113045080E70E941C028FEF0E941C022FEF89EF9D
S113046090E0215080409040E1F700C0000084E318
S11304700E941C0280E30E941C028FE39CE9019706
S1130480F1F700C0000084E30E941C0280E30E9494
S11304901C028FE99FE00197F1F700C0000084E39C
S11304A00E941C0280E30E941C028FE99FE00197D6
S11304B0F1F700C0000084E20E941C0280E20E9466
S11304C01C028FE99FE00197F1F700C000000E9431
S11304D012020895CF93DF93C82F0E940A0280E787
S11304E00E941C02DC2FD07F8D2F8C600E941C0286
S11304F08D2F88600E941C0280E1C89FE0011124B6
S11305008C2F8C600E941C028C2F0E941C020E9463
S113051012028FE39FE10197F1F700C000008FE31F
S11305209FE10197F1F700C00000DF91CF9108959A
S11305300E9401020E9426028CE20E946A028CE060
S11305400E946A0286E00E946A0280E80E946A02AF
S11305500895CF93DF93C82F0E940A0280E70E9478
S11305601C02DC2FD07F8D2F8D600E941C028D2FEA
S113057089600E941C0280E1C89FE00111248C2F35
S11305808D600E941C028C2F89600E941C020E94B4
S113059012028FE39FE10197F1F700C000008FE39F
S11305A09FE10197F1F700C00000DF91CF9108951A
S11305B0E62FF0E0E150FF4F9081890F81580E94AF
S11305C06A02089581E00E946A028FE39FE1019725
S11305D0F1F700C0000008950F931F93CF93DF93AA
S11305E08C01C0E0D0E003C00E94A9022196F8016A
S11305F0EC0FFD1F80818111F7CFDF91CF911F9107
S11306000F91089520E030E00FC095B180E2892772
S113061085B94FEF83EC99E0415080409040E1F779
S113062000C000002F5F3F4F2630310574F308955A
S11306300E9432030E9402030E9401020E94980257
S113064089E191E00E94EC020E94F8010E94870176
S11306500E943B018FEC90E00E94CF030E946E0346
S11306607894FFCF8FEF84B98AB11AB88BB18C60BC
S11306708BB987B117B888B1816088B908951F9282
S11306800F920FB60F9211248F939F9380912A019A
S11306908F5F80932A0180912A018D3730F095B1C4
S11306A080E2892785B910922A019F918F910F903A
S11306B00FBE0F901F9018951F920F920FB60F92B6
S11306C011248F939F9395B180E2892785B99F91D7
S11306D08F910F900FBE0F901F901895E0E8F0E0F7
S11306E08081806C8083808182608083E1E8F0E097
S11306F0808188618083808182608083E6E8F0E085
S11307008FE39CE99183808380819181805A9F400B
S1130710909389008093880008959091C00095FF7C
S1130720FCCF8093C60008951F920F920FB60F92CC
S113073011242F933F934F935F936F937F938F93E2
S11307409F93AF93BF93EF93FF938091C6008093E1
S11307502B018DE20E948D038EE30E948D03809114
S11307602B010E948D0380912B01813321F485B1EB
S1130770806285B903C085B18F7D85B9FF91EF9102
S1130780BF91AF919F918F917F916F915F914F91A5
S11307903F912F910F900FBE0F901F901895E2EC90
S11307A0F0E020812F73208322E02093C0009093F7
S11307B0C5008093C40086E08083E1ECF0E088E12A
S11307C080838081806880830895E89409C097FBC2
S11307D03EF490958095709561957F4F8F4F9F4F14
S11307E09923A9F0F92F96E9BB279395F695879558
S11307F077956795B795F111F8CFFAF4BB0F11F41B
S113080060FF1BC06F5F7F4F8F4F9F4F16C08823C1
S113081011F096E911C0772321F09EE8872F762FF7
S113082005C0662371F096E8862F70E060E02AF038
S11308309A95660F771F881FDAF7880F9695879524
S113084097F90895AA1BBB1B51E107C0AA1FBB1F40
S1130850A617B70710F0A61BB70B881F991F5A9548
S1130860A9F780959095BC01CD010895EF920F935F
S11308701F93CF93DF93E80147FD02C034E001C02A
S113088034E1042E000C550B57FF03C051954195DC
S11308905109E32E022F242FAE010E945604CE01EB
S11308A0DF91CF911F910F91EF900895A9E0B0E0EF
S11308B0ECE5F4E00C948E066A01122FB02E2BE3C3
S11308C0201720F0FF24F394F00E02C02CE3F22E44
S11308D00F2D27E0AE014F5F5F4F0E94B005BC01B2
S11308E04981842F8970813031F0E1FC06C0E0FE3B
S11308F006C090E205C09DE203C09BE201C090E007
S11309005E2D507143FF3CC0911102C083E001C0D1
S113091084E0811718F4212F281B01C020E0511115
S11309200BC0F601822F30E2882319F031938150F5
S1130930FBCFC20ED11C20E0992329F0D6019C9351
S1130940F60131966F01C6010396E2FE0AC03EE449
S1130950D6013C9341E411964C93119712963C9323
S113096006C03EE6F601308341E641833283FC0152
S1130970322F40E2332309F442C041933150FACF7D
S113098042FF44C0911102C083E001C084E081179A
S113099018F4212F281B01C020E051110BC0F601CF
S11309A0822F30E2882319F031938150FBCFC20E9D
S11309B0D11C20E0992329F0D6019C93F6013196AD
S11309C06F01C6010396E2FE0BC039E4D6013C93E5
S11309D03EE411963C93119736E412963C9307C07B
S11309E039E6F60130833EE6318336E63283FC0194
S11309F0322F40E2332319F041933150FBCFFC01F5
S1130A00E20FF11D10828EEF9FEFA6C021E030E0CF
S1130A10911102C020E030E0161617061CF4FB0109
S1130A20319602C0E1E0F0E02E0F3F1FBB2021F021
S1130A30EB2DF0E0319602C0E0E0F0E02E0F3F1F16
S1130A40E12FF0E02E173F071CF4121B212F01C0E9
S1130A5020E08E2D887159F4F601822F30E288232C
S1130A6019F031938150FBCFC20ED11C20E09923A1
S1130A7029F0D6019C93F60131966F0151110BC0F8
S1130A80F601822F90E3882319F091938150FBCFD4
S1130A90C20ED11C20E00F2D060F9A81342F307125
S1130AA044FF03C0913309F40150101624F40930B3
S1130AB018F008E001C001E0AB0177FF02C040E09C
S1130AC050E0FB01E41BF50BA1E0B0E0AC0FBD1F4F
S1130AD0EA0FFB1F8EE2A82E4B01801A91080B2D02
S1130AE010E01195019511094F3FBFEF5B0721F409
S1130AF0D601AC9211966D01641775072CF084161B
S1130B00950614F4818101C080E341505109319666
S1130B10D60111967D014017510724F0D6018C931C
S1130B206701E2CF6417750739F4963320F49533DF
S1130B3019F4311101C081E3F6018083F701822F9A
S1130B4090E2882319F091938150FBCFF701E20FD3
S1130B50F11D108280E090E02996ECE00C94AA0646
S1130B60283008F027E03327DA01990F311D87FD7B
S1130B70916000966105710539F432602E5F3D93F2
S1130B8030E32A95E1F708959F3F30F080387105EE
S1130B90610509F03C5F3C5F3D93913008F080684B
S1130BA0911DDF93CF931F930F93FF92EF92192F11
S1130BB0987F9695E92F96959695E90FFF27EE5322
S1130BC0FF4F99273327EE24FF24A701E70105905F
S1130BD00894079428F4360FE71EF81E491F511D88
S1130BE0660F771F881F991F0694A1F70590079435
S1130BF028F4E70EF81E491F561FC11D770F881FE2
S1130C00991F661F0694A1F70590079428F4F80E1F
S1130C10491F561FC71FD11D880F991F661F771FB5
S1130C200694A1F70590079420F4490F561FC71F97
S1130C30D81F990F661F771F881F0694A9F7849100
S1130C401095177041F0D695C79557954795F79429
S1130C50E7941A95C1F7E8E6F0E0689415901591C9
S1130C6035916591959105907FE27395E118F10AAC
S1130C70430B560BC90BD009C0F7E10CF11E431FFF
S1130C80561FC91FD01D7EF4703311F48A95E6CF28
S1130C90E894015030F0080F0AF40027021708F412
S1130CA0202F2395022F7A3328F079E37D932A9518
S1130CB0E9F710C07D932A9589F606949795679570
S1130CC0379517951794E118F10A430B560BC90B86
S1130CD0D00998F023957E9173957A3308F070E3E8
S1130CE07C932013B8F77E9170617D9330F08395E7
S1130CF071E37D9370E32A95E1F71124EF90FF905F
S1130D000F911F91CF91DF91992787FD90950895B9
S1130D102F923F924F925F926F927F928F929F9207
S1130D20AF92BF92CF92DF92EF92FF920F931F93F5
S1130D30CF93DF93CDB7DEB7CA1BDB0B0FB6F894A6
S1130D40DEBF0FBECDBF09942A88398848885F84E6
S1130D506E847D848C849B84AA84B984C884DF8057
S1130D60EE80FD800C811B81AA81B981CE0FD11D3B
S1130D700FB6F894DEBF0FBECDBFED010895F89411
S1050D80FFCF9F
S1130D820040430056696E203E2056726566004953
S1130D924E543000494E543100746F646F732072A4
S10D0DA26570726F6261646F730084
S9030414E4
