:100000000C9434000C9487000C94BC000C944900B0
:100010000C9449000C9449000C9449000C9449003C
:100020000C9449000C9449000C9449000C9449002C
:100030000C9449000C9449000C9449000C9449001C
:100040000C9449000C9449000C9449000C9449000C
:100050000C9449000C9449000C9449000C944B00FA
:100060000C9449000C94490011241FBECFEFD8E036
:10007000DEBFCDBF11E0A0E0B1E0EAE5F4E002C0F0
:1000800005900D92A832B107D9F70E9411020C9485
:100090002B020C9400001F920F920FB60F921124A6
:1000A0002F933F934F935F936F937F938F939F9380
:1000B000AF93BF93EF93FF9362E081E00E94D10181
:1000C00082E091E00E94E5012FEF83EC99E021505E
:1000D00080409040E1F700C000000E94DB01FF91EA
:1000E000EF91BF91AF919F918F917F916F915F91B0
:1000F0004F913F912F910F900FBE0F901F90189529
:1001000080B7836080BF80B7886080BF08951F92EA
:100110000F920FB60F9211242F933F934F935F933B
:100120006F937F938F939F93AF93BF93EF93FF93BF
:1001300062E081E00E94D1018DE091E00E94E50142
:100140002FEF83EC99E0215080409040E1F700C010
:1001500000000E94DB01FF91EF91BF91AF919F9151
:100160008F917F916F915F914F913F912F910F9060
:100170000FBE0F901F9018951F920F920FB60F92FF
:1001800011242F933F934F935F936F937F938F939C
:100190009F93AF93BF93EF93FF9362E081E00E9440
:1001A000D10182E191E00E94E5012FEF83EC99E01B
:1001B000215080409040E1F700C000000E94DB0128
:1001C000FF91EF91BF91AF919F918F917F916F912F
:1001D0005F914F913F912F910F900FBE0F901F9005
:1001E0001895E9E6F0E080818A6080838DB38360B2
:1001F0008DBB08951092B90084E18093B80084E02B
:100200008093BC00089584EA8093BC008091BC0078
:100210008823E4F7089584E98093BC008FE99FE088
:100220000197F1F700C0000008958093BB0084ECB3
:100230008093BC008091BC008823E4F708950E945D
:10024000030180E70E9415018FEF0E9415012FEF37
:1002500089EF90E0215080409040E1F700C000001D
:1002600084E30E94150180E30E9415018FE39CE95D
:100270000197F1F700C0000084E30E94150180E3BC
:100280000E9415018FE99FE00197F1F700C000007F
:1002900084E30E94150180E30E9415018FE99FE02D
:1002A0000197F1F700C0000084E20E94150180E28E
:1002B0000E9415018FE99FE00197F1F700C000004F
:1002C0000E940B010895CF93DF93C82F0E94030172
:1002D00080E70E941501DC2FD07F8D2F8C600E945B
:1002E00015018D2F88600E94150180E1C89FE001F3
:1002F00011248C2F8C600E9415018C2F0E941501F7
:100300000E940B018FE39FE10197F1F700C000000D
:100310008FE39FE10197F1F700C00000DF91CF91DB
:1003200008950E94FA000E941F018CE20E9463015E
:100330008CE00E94630186E00E94630180E80E94D5
:1003400063010895CF93DF93C82F0E94030180E7D4
:100350000E941501DC2FD07F8D2F8D600E9415012A
:100360008D2F89600E94150180E1C89FE001112452
:100370008C2F8D600E9415018C2F89600E941501C1
:100380000E940B018FE39FE10197F1F700C000008D
:100390008FE39FE10197F1F700C00000DF91CF915B
:1003A0000895E62FF0E0E150FF4F9081890F8158CA
:1003B0000E946301089581E00E9463018FE39FE141
:1003C0000197F1F700C0000008950F931F93CF939A
:1003D000DF938C01C0E0D0E003C00E94A20121960F
:1003E000F801EC0FFD1F80818111F7CFDF91CF91D4
:1003F0001F910F91089520E030E00FC095B180E289
:10040000892785B94FEF83EC99E0415080409040B7
:10041000E1F700C000002F5F3F4F2630310574F335
:1004200008950E9423020E94FB010E94FA000E948C
:10043000910187E191E00E94E5010E94F1000E9494
:1004400080007894FFCF8FEF84B98AB11AB88BB14E
:0A0450008C608BB90895F894FFCF7B
:10045A00004056696E203E205672656600494E5429
:10046A003000494E543100746F646F7320726570A6
:08047A00726F6261646F730090
:0400000300000206F1
:00000001FF
