S0180000737364313330365F6D617969617375732E737265632D
S11300000C943D010C945A010C945A010C945A011D
S11300100C945A010C945A010C945A010C945A01F0
S11300200C945A010C945A010C945A010C945A01E0
S11300300C945A010C945A010C945A010C945A01D0
S11300400C945A010C945A010C945A010C945A01C0
S11300500C945A010C945A010C945A010C945A01B0
S11300600C945A010C945A011200AE01A83F0120CD
S1130070000221007F02220007004001D30000A1FA
S113008000C801DA1201817F00A400A601D5800115
S1130090D9C201DB20018D1400AF000000000081F3
S11300A0811881810007000700147F147F14242A1B
S11300B07F2A12231308646236495522500005032F
S11300C00000001C2241000041221C0014083E08CC
S11300D01408083E08080050300000080808080802
S11300E0006060000020100804023E5149453E00B3
S11300F0427F400042615149462141454B31181429
S1130100127F1027454545393C4A49493001710958
S113011005033649494936064949291E0036360041
S1130120000056360000081422410014141414145C
S113013000412214080201510906324979413E7EE8
S11301401111117E7F494949363E414141227F4187
S113015041221C7F494949417F090909013E41491E
S1130160497A7F0808087F00417F41002040413FD1
S1130170017F081422417F404040407F020C027FEF
S11301807F0408107F3E4141413E7F090909063E34
S11301904151215E7F0919294646494949310101E6
S11301A07F01013F4040403F1F2040201F3F403817
S11301B0403F6314081463070870080761514945F8
S11301C043007F41410002040810200041417F00A8
S11301D004020102044040404040000102040020A7
S11301E0545454787F484444383844444420384470
S11301F044487F3854545418087E0901020C525262
S1130200523E7F0804047800447D40002040443D71
S1130210007F1028440000417F40007C04180478CB
S11302207C0804047838444444387C1414140808C2
S11302301414147C7C080404084854545420043FC7
S11302404440203C4040207C1C2040201C3C40304A
S1130250403C44281028440C5050503C4464544CB6
S113026044000836410000007F00000041360800C9
S11302701008081008000000000011241FBECFEF72
S1130280D8E0DEBFCDBF11E0A0E0B1E0E2E1F7E0ED
S113029002C005900D92A031B107D9F721E0A0E189
S11302A0B1E001C01D92A431B207E1F70E94B3018D
S11302B00C9487030C94000082E08093B800E9EB6F
S11302C0F0E08081908182708160892B8083089521
S11302D0E9EBF0E080818775808384EA8093BC0039
S11302E08091BC008823E4F78091B900887F88302E
S11302F049F08091B900887F803131F08091B90054
S1130300887F089580E0089580E00895880F8093A1
S1130310BB0084E88093BC008091BC008823E4F790
S11303208091B900887F883121F08091B900887F5D
S1130330089580E008958093BB0084E88093BC0016
S11303408091BC008823E4F78091B900887F8832CB
S113035021F08091B900887F089580E0089584E9B0
S11303608093BC000895CF93DF930E944B030E94B7
S1130370090260E082E00E94670261E080E091E0AF
S11303800E943403C0E0D0E013C064E08C2F0E94CC
S1130390670260E084E091E00E9434032FEF89EF6C
S11303A090E0215080409040E1F700C00000219689
S11303B0CB37D10554F368E08AE00E94670260E01D
S11303C086E091E00E9434036AE08AE00E946702BA
S11303D060E18BE091E00E94340380E090E0DF91E3
S11303E0CF910895CF93C82F0E946801811103C053
S11303F08C2F0E948601CF910895CF93C82F80E857
S11304000E949B01811103C08C2F0E949B01CF91FC
S11304100895CF93DF938CE30E94F201811115C0FC
S113042080E40E949B01811110C0C0E0D0E006C0AE
S113043080E00E949B01811108C02196C11584E0CF
S1130440D807B0F30E94AF0180E0DF91CF91089507
S11304500F931F93CF93DF93C82FD62F142F022F00
S11304608CE30E94F20181112DC081E20E94FD0102
S1130470811128C08C2F0E94FD01811123C08D2F72
S11304800E94FD0181111EC08C2F90E090931301F6
S11304908093120182E20E94FD01811113C0812F19
S11304A00E94FD0181110EC0802F0E94FD01811167
S11304B009C0812F90E090931101809310010E9454
S11304C0AF0180E0DF91CF911F910F910895462FE6
S11304D027E06FE70E9428020895CF938823D4F47D
S11304E0C62F673098F41092130110921201609194
S11304F01001709111016F5F7F4F70931101609330
S1130500100180E00E946702811107C0C73020F00B
S113051081E003C080E001C080E0CF9108950F9393
S11305201F93CF93DF93C82F862F8F7090E000978F
S113053009F03DC0607F11F4D0E001C0D0E88091A3
S11305401201609110018B5F0E946D02811187C0BE
S11305508CE30E94F201811182C080E40E949B011D
S113056081117DC020E020C08C2F90E0809711E0A5
S1130570120FFC01EE0FFF1FEE0FFF1FE80FF91F14
S1130580E20FF11DE656FF4F84918D2B0E949B01D3
S1130590811165C08091120190911301019690938D
S11305A0130180931201212F2530F0F247C00197E7
S11305B009F043C0607F11F4D0E001C0D0E880911D
S11305C0120160911001865F0E946D02811147C083
S11305D08CE30E94F201811142C080E40E949B01DD
S11305E081113DC020E026C08C2F90E0809701E06F
S11305F0020FFC01EE0FFF1FEE0FFF1FE80FF91FA4
S1130600E20FF11DE656FF4F14911D2B812F0E941E
S11306109B01811124C0812F0E949B0181111FC065
S1130620809112019091130102969093130180938B
S11306301201202F2530C0F201C0D0E08D2F0E947E
S11306409B0181110CC080911201909113010196BC
S113065090931301809312010E94AF0180E0DF9117
S1130660CF911F910F9108950F931F93CF93DF9311
S11306708C01D62FC0E004C0CF5F6D2F0E948F0283
S1130680F801EC0FF11D80818111F6CFDF91CF913C
S11306901F910F910895DF92EF92FF920F931F9392
S11306A0CF93DF93E8E6F0E0D4900E945C018CE302
S11306B00E94F201811123C0C9E6D0E01BC0FE01F3
S11306C014913196849122960E94FD01882369F049
S11306D016C07E01FFEFEF1AFF0AFE0184910E940B
S11306E0FD01102F81110BC0E7010FEF010F111154
S11306F0F0CFDA94D110E3CF0E94AF0180E0DF9114
S1130700CF911F910F91FF90EF90DF900895F8948F
S1050710FFCF15
S11307126A6C62002D00464549430032303234008F
S9030000FC
